:020000040800F2
:10000000900D0020CD010008F10D0008590A0008EC
:10001000ED0D000891060008112100080000000005
:100020000000000000000000000000003510000883
:100030009506000800000000790E0008491100082C
:10004000E7010008E7010008E7010008E7010008F0
:10005000E7010008E7010008E7010008E7010008E0
:10006000E7010008E7010008E7010008E7010008D0
:10007000E7010008E7010008E7010008E7010008C0
:10008000E7010008E7010008E7010008E7010008B0
:10009000E7010008E7010008E701000897060008EB
:1000A000E7010008E7010008E7010008E701000890
:1000B000E7010008ED130008E7010008E701000868
:1000C000E7010008E7010008E7010008E701000870
:1000D000E7010008991B0008951C0008951D000801
:1000E000E7010008E7010008E7010008E701000850
:1000F000E7010008E7010008E7010008E701000840
:10010000E7010008E7010008E7010008E70100082F
:10011000E7010008E70100083D1600087D16000809
:10012000E7010008E7010008E7010008E70100080F
:1001300000F002F800F03AF80AA090E8000C8244BF
:100140008344AAF10107DA4501D100F02FF8AFF29C
:10015000090EBAE80F0013F0010F18BFFB1A43F0A5
:1001600001031847A4430000C4430000103A24BF11
:1001700078C878C1FAD8520724BF30C830C144BF0C
:1001800004680C607047000000230024002500264E
:10019000103A28BF78C1FBD8520728BF30C148BFEA
:1001A0000B6070471FB51FBD10B510BD00F006F9FC
:1001B0001146FFF7F7FF02F0B9FC00F024F903B491
:1001C000FFF7F2FF03BC02F021F800000948804766
:1001D00009480047FEE7FEE7FEE7FEE7FEE7FEE729
:1001E000FEE7FEE7FEE7FEE704480549054A064B41
:1001F000704700004D1100083101000890070020F1
:10020000900D002090090020900900207047032ADB
:1002100040F2308010F0030C00F0158011F8013B23
:10022000BCF1020F624498BF11F801CB00F8013B0A
:1002300038BF11F8013BA2F1040298BF00F801CBCE
:1002400038BF00F8013B11F0030300F02580083AA5
:10025000C0F0088051F8043B083A51F804CBA0E8FC
:100260000810F5E7121D5CBF51F8043B40F8043B51
:10027000AFF30080D20724BF11F8013B11F801CB86
:1002800048BF11F8012B24BF00F8013B00F801CB57
:1002900048BF00F8012B704710B5203AC0F00B8022
:1002A000B1E81850203AA0E81850B1E81850A0E87A
:1002B0001850BFF4F5AF5FEA027C24BFB1E81850D4
:1002C000A0E8185044BF18C918C0BDE810405FEA44
:1002D000827C24BF51F8043B40F8043B08BF7047C0
:1002E000D20728BF31F8023B48BF11F8012B28BFC5
:1002F00020F8023B48BF00F8012B70474FF0000286
:100300000429C0F0128010F0030C00F02A80CCF118
:10031000040CBCF1020F18BF00F8012BA8BF20F895
:10032000022BA1EB0C0100F01CB85FEAC17C24BFDA
:1003300000F8012B00F8012B48BF00F8012B704793
:10034000704770477047704710B500F02FF800688D
:1003500010BD10B5044600F029F8046010BD4FF040
:10036000000200B5134694469646203922BFA0E805
:100370000C50A0E80C50B1F12001BFF4F7AF090711
:1003800028BFA0E80C5048BF0CC05DF804EB890002
:1003900028BF40F8042B08BF704748BF20F8022B45
:1003A00011F0804F18BF00F8012B704700487047CC
:1003B0003007002000487047300700207546FFF7DF
:1003C000F9FFAE4605006946534620F00700854612
:1003D00018B020B5FFF708FFBDE820404FF0000639
:1003E0004FF000074FF000084FF0000B21F007011D
:1003F000AC46ACE8C009ACE8C009ACE8C009ACE860
:10040000C0098D46704710B50446AFF30080204602
:10041000BDE81040FFF7D3BE21B1826842F001026F
:10042000826003E0826822F001028260704700006F
:1004300010B504461248844208D10121401500F04D
:1004400049FD0021601500F045FD17E00D4884428C
:1004500008D10121001500F03DFD0021201500F01C
:1004600039FD0BE00848844208D10121C80300F09F
:1004700031FD00214FF4004000F02CFD10BD0000C4
:100480000024014000280140003C014001460020BA
:100490008A6802F004020AB1012000E000207047DF
:1004A0000146C86C80B270470246002013680B40BA
:1004B0000BB1012000E000207047014600208A684F
:1004C00002F008020AB1012000E00020704700009D
:1004D00030B502460020002350680F4C20400D79B3
:1004E0000C6844EA05242043506090680B4C20407F
:1004F000D1E902542C434D7944EA450420439060ED
:10050000D06A20F470000C7C641EE4B2234340EAFD
:100510000350D06230BD0000FFFEF0FFFDF7F1FF99
:10052000F0B504460D4600200021092D11DDE068DC
:10053000A5F10A0606EB4607072606FA07F18843E7
:10054000A5F10A0606EB460603FA06F10843E06049
:100550000CE0206905EB4507072606FA07F18843FA
:1005600005EB450603FA06F108432061072A0FDA76
:10057000606B561E06EB86071F2606FA07F18843B6
:10058000561E06EB860605FA06F10843606322E074
:100590000D2A0FDA206BD61F06EB86071F2606FAF8
:1005A00007F18843D61F06EB860605FA06F10843D5
:1005B000206310E0E06AA2F10D0606EB86071F2615
:1005C00006FA07F18843A2F10D0606EB860605FA46
:1005D00006F10843E062F0BD816841F008018160E6
:1005E000704721B1826842F4A002826003E0826811
:1005F00022F4A00282607047816841F004018160AA
:100600007047000000B587B001214FF4017000F081
:1006100051FC4FF4004000F031FC0220ADF8040022
:1006200000208DF8070001A9174800F03FF817488F
:10063000FFF7FEFE002002908DF80C008DF80D00F3
:100640004FF4602004900020059001208DF81800E0
:1006500002A90E48FFF73CFF01210C48FFF7DCFE22
:100660000A48FFF7B9FF00BF0848FFF726FF002838
:10067000FAD10648FFF7C0FF00BF0448FFF706FFA6
:100680000028FAD107B000BD000801400024014055
:1006900000BFFEE7704710B5402000F001F810BD24
:1006A0000149086070470000140401402DE9F04141
:1006B000024600250026002000230024002791F890
:1006C00003C00CF00F0591F803C00CF0100CBCF146
:1006D000000F03D091F802C04CEA050591F800C064
:1006E000BCF1000F31D0146800202BE04FF0010C5A
:1006F0000CFA00F3B1F800C00CEA03069E4220D1C8
:1007000083004FF00F0C0CFA03F7BC4305FA03FC0F
:100710004CEA040491F803C0BCF1280F06D14FF055
:10072000010C0CFA00FCC2F814C00AE091F803C0F6
:10073000BCF1480F05D14FF0010C0CFA00FCC2F8D7
:1007400010C0401C0828D1D31460B1F800C0BCF11F
:10075000FF0F34DD546800202EE000F1080C4FF04C
:10076000010808FA0CF3B1F800C00CEA03069E4237
:1007700021D183004FF00F0C0CFA03F7BC4305FAAC
:1007800003FC4CEA040491F803C0BCF1280F05D126
:1007900000F1080C08FA0CF8C2F8148091F803C0B4
:1007A000BCF1480F07D100F1080C4FF0010808FA1E
:1007B0000CF8C2F81080401C0828CED35460BDE865
:1007C000F081416170470161704700002DE9F043FD
:1007D00089B006460F4614461D464FF6FF78C146BF
:1007E0000121022000F056FB0121082000F062FBED
:1007F0000220ADF8200028208DF8230008A9284801
:10080000FFF754FF02212648FFF7DBFF44B905EB51
:1008100085004000401E1FFA80F841F61F4906E09F
:10082000012C04D1681E1FFA80F84FF04709ADF87B
:100830001880ADF814900020ADF81A00ADF816003D
:1008400005A9184801F056F90C20ADF80400002065
:10085000ADF806000120ADF808000020ADF80A0050
:100860000320ADF80C0001A90E4800F04DFF1D203B
:100870008DF810008DF811608DF8127001208DF840
:10088000130004A800F0B6FA01221121054800F077
:1008900091FF0121034800F015FF09B0BDE8F08386
:1008A000000C0140000400401148006800F00040C6
:1008B000D0B10F48006820F040400E49086008465B
:1008C00000680D4908600B4800684FF47A7148438E
:1008D000084908600846006808490988084405492D
:1008E0000860002002490860024800687047000064
:1008F0004800002050000020040000204C00002090
:1009000010B504460723012221460948FFF708FED7
:1009100001210748FFF765FE00BF02210448FFF7E9
:10092000C3FD0028F9D00248FFF7BAFD10BD000052
:10093000002401402DE9F05F00F046FB15480088D7
:1009400003F002FB80461448008803F0FDFA81465C
:100950001248008803F0F8FA82461148006803F054
:10096000DBFA83464FF0814103F0C0F90746514658
:1009700003F0BCF90646494603F0B8F9054641467E
:1009800003F0B4F90446074903F026FB0649086062
:10099000BDE8F09F3000002034000020320000202D
:1009A0003800002000007A44400000202DE9F05F6C
:1009B00000F026FB1548008803F0C6FA804614486C
:1009C000008803F0C1FA81461248008803F0BCFA9F
:1009D00082461148006803F09FFA83464FF0814138
:1009E00003F084F90746514603F080F9064649466C
:1009F00003F07CF90546414603F078F904460749BF
:100A000003F0EAFA06490860BDE8F09F30000020D4
:100A100034000020320000203C00002000007A4416
:100A20004400002008B50121042000F043FA102002
:100A3000ADF8000003208DF8020010208DF80300AF
:100A400069460448FFF732FE10210248FFF7B9FE5D
:100A500008BD00000008014000BFFEE71CB50121F1
:100A6000042000F027FA4FF40060ADF804000320E2
:100A70008DF8060010208DF8070001A90D48FFF73A
:100A800015FE4FF400610B48FFF79DFE4FF48050B8
:100A9000ADF8000003208DF8020010208DF803004F
:100AA00069460448FFF702FE4FF480510148FFF702
:100AB0008AFE1CBD0008014010B500200E490860E8
:100AC0000E48006820F0F0000C49086008460068F5
:100AD00040F03000086000200949C1F8A40100F08E
:100AE00011F801200449086000F00CF800200449C6
:100AF000C1F8A00110BD0000A0812142040C0140FA
:100B00000080214210B5022001F004FF10BD00005A
:100B100010B500200E4908600E48006820F0F00073
:100B20000C4908600846006840F030000860012069
:100B30000949C1F8A401FFF7E5FF01200449086055
:100B4000FFF7E0FF00200449C1F8A00110BD00003C
:100B5000A0812142040C01400080214270B505466D
:100B600000241648006820F0F00014490860084688
:100B7000006840F080000860002614E00020104962
:100B80000860FFF7BFFF01200E49C1F8A001600611
:100B9000040E0B487C38006808B1601CC4B2FFF733
:100BA000B1FF701CC6B2082EE8DB15B9FFF7B0FF25
:100BB00001E0FFF781FF204670BD0000040C0140FA
:100BC000A08121420080214270B50446124800688D
:100BD00020F0F000104908600846006840F030003E
:100BE000086000200D490860002512E0E0090B496B
:100BF000091D08606006040E01200949C1F8A00122
:100C0000FFF780FF002005490860FFF77BFF681CA5
:100C1000C5B2082DEADB70BD040C0140A081214261
:100C20000080214210B50E48006820F0F0000C4909
:100C300008600846006840F030000860012009495B
:100C400008600949C1F8A001FFF75CFF00200549D1
:100C50000860FFF757FF00200349C1F8A00110BD4D
:100C6000040C0140A48121420080214210B50E48AD
:100C7000006820F0F0000C4908600846006840F069
:100C8000300008600020094908600949C1F8A40142
:100C9000FFF738FF0120054908600549C1F8A401A4
:100CA000FFF730FF10BD0000040C0140A08121427D
:100CB0000080214210B500241448006820F0F000A4
:100CC000124908600846006840F080000860012072
:100CD0000F490860FFF716FF01200E49C1F8A00177
:100CE000FFF710FF07E0601CC4B2FA2C03DDFFF72A
:100CF000BDFF012010BD0648803800680028F2D1F1
:100D00000349091F086000BFF4E70000040C01401C
:100D1000A4812142008021422DE9F04106460F4680
:100D200014461D46FFF77EFF002141EA4601C8B286
:100D3000FFF74AFFFFF7BEFF20B1FFF797FF012043
:100D4000BDE8F0813846FFF73FFFFFF7B3FFFFF73D
:100D500069FF012101EB4601C8B2FFF735FFFFF73C
:100D6000A9FF0DE0012C04D10020FFF7F7FE287049
:100D700003E00120FFF7F2FE2870601EC4B26D1C74
:100D8000002CEFD1FFF772FF0020D9E72DE9F041E9
:100D900005460E4617469846FFF744FF002141EAF4
:100DA0004501C8B2FFF710FFFFF784FF20B1FFF73E
:100DB0005DFF0120BDE8F0813046FFF705FFFFF73A
:100DC00079FF00240CE018F80400FFF7FDFEFFF7A0
:100DD00071FF18B1FFF74AFF0120EBE7601CC4B2B6
:100DE000BC42F0DBFFF742FF0020E3E700BFFEE775
:100DF0007047000070B5002100230F22C47804B3AF
:100E0000154C246804F4E064C4F5E064210AC1F1DF
:100E10000403CA40447804FA03F18478144021435F
:100E200009010E4C0678A155047804F01F05012431
:100E3000AC4005786D11AD0005F1E025C5F8004125
:100E400009E0047804F01F050124AC40044D067845
:100E5000761145F8264070BD0CED00E000E400E09E
:100E600080E100E002490143024A1160704700003E
:100E70000000FA050CED00E070470000014600207C
:100E8000034A506820F44040084350607047000017
:100E90000010024029B1064AD2690243044BDA61CC
:100EA00004E0034AD2698243014BDA6170470000D3
:100EB0000010024029B1064A92690243044B9A612C
:100EC00004E0034A92698243014B9A617047000033
:100ED0000010024029B1064AD2680243044BDA608E
:100EE00004E0034AD2688243014BDA607047000095
:100EF0000010024030B500210022002400232D4DB7
:100F00006D6805F00C0121B1042905D0082923D111
:100F100005E0294D056022E0274D05601FE0254DC5
:100F20006D6805F47012234D6D6805F48034022558
:100F300005EB92421CB9214D554305600BE01D4D58
:100F40006D6805F400351DB11C4D5543056002E088
:100F5000194D5543056002E0174D056000BF00BF05
:100F6000144D6D6805F0F0010909154D6B5C0568BD
:100F7000DD4045600F4D6D6805F4E061090A104DD4
:100F80006B5C4568DD4085600A4D6D6805F4605115
:100F9000C90A0B4D6B5C4568DD40C560054D6D6849
:100FA00005F44041890B074D6B5CC568B5FBF3F553
:100FB000056130BD0010024000127A0000093D00BA
:100FC000C0000020D00000204FF08040808CB0F5A1
:100FD000004F08DB4FF08040808CA0F57F40FF3849
:100FE0000649086004E04FF08040808C03490860A7
:100FF0004FF6FF704FF08041888470473800002022
:101000000A480088B0F5004F07DB08480088A0F5C3
:101010007F40FF380649086003E00448008804491F
:1010200008604FF6FF7001490880704724080040AF
:101030003C000020704710B500F002F810BD000021
:101040000CB50020019000903348006840F48030D7
:101050003149086000BF3048006800F4003000905B
:101060000198401C0190009818B90198B0F5A06F44
:10107000F1D12948006800F4003010B1012000903F
:1010800001E0002000900098012843D12348006827
:1010900040F01000214908600846006820F0030075
:1010A00008600846006840F0020008601A4840687E
:1010B000194948600846406848600846406840F45E
:1010C000806048600846406820F47C10486008460C
:1010D000406840F4E81048600846006840F08070BE
:1010E000086000BF0C48006800F000700028F9D0CC
:1010F0000948406820F003000749486008464068F6
:1011000040F00200486000BF0348406800F00C0057
:101110000828F9D10CBD0000001002400020024058
:10112000042808D14FF0E021096941F004014FF093
:10113000E022116107E04FF0E021096921F004018C
:101140004FF0E022116170477047000010B513485E
:10115000006840F0010011490860084640681049E5
:1011600008400E494860084600680E4908400B498F
:1011700008600846006820F480200860084640683F
:1011800020F4FE0048604FF41F008860FFF753FF13
:101190004FF000600449086010BD000000100240DC
:1011A0000000FFF8FFFFF6FE08ED00E0F0B50C468A
:1011B000154600220021068C4FF6FE773E4006843D
:1011C000028B018C4FF60C7632407E1C06EA031629
:1011D0002E433243104EB0420ED0104EB0420BD0D0
:1011E000B0F1804F08D00E4EB04205D00D4EB04247
:1011F00002D00D4EB04206D14FF6FD76314044F09C
:101200000106314305E04FF6F576314044F0010622
:10121000314302830184F0BD002C014000340140C1
:101220000004004000080040000C0040F0B50C46EF
:101230001546002200210026078C4FF6EF7C07EAB6
:101240000C070784028B018C4FF6FF7707EA041620
:1012500040F6FF473A404FF6FF7707EA03373A4335
:101260004FF6FF7707EA05273A43114FB8420ED0F1
:10127000104FB8420BD0B0F1804F08D00E4FB8429B
:1012800005D00E4FB84202D00D4FB84206D14FF6EE
:10129000DF77394046F01007394305E04FF65F77B6
:1012A000394044F01007394302830184F0BD000047
:1012B000002C0140003401400004004000080040C0
:1012C000000C0040F0B50C46154600220021002617
:1012D000078C4FF6FF6C07EA0C070784828B018CA2
:1012E0004FF6FF7707EA04264FF60C773A404FF6A1
:1012F000FF7707EA03172F433A43114FB8420ED046
:10130000104FB8420BD0B0F1804F08D00E4FB8420A
:1013100005D00E4FB84202D00D4FB84206D14FF65D
:10132000FF57394046F48077394305E04FF2FF57C5
:10133000394044F48077394382830184F0BD000052
:10134000002C01400034014000040040000800402F
:10135000000C0040F0B50C46154600220021002686
:10136000078C4EF6FF7C07EA0C070784828B018C02
:101370004FF6FF7707EA043640F6FF473A404FF64C
:10138000FF7707EA05273A434FF6FF7707EA033767
:101390003A43114FB8420ED0104FB8420BD0B0F1C3
:1013A000804F08D00E4FB84205D00E4FB84202D041
:1013B0000D4FB84206D14DF6FF77394046F48057BD
:1013C000394305E047F6FF57394044F48057394325
:1013D00082830184F0BD0000002C014000340140F4
:1013E0000004004000080040000C004010B52D48EB
:1013F000006800F0004000284ED101212A4800F08A
:1014000071F9E0B12748006800F08040B8B1254884
:10141000006820F040406FF0404188420AD12148E6
:10142000006840F000401F4908604FF6FF701F49F8
:10143000088004E01B480068401C1A49086010211D
:10144000194800F04FF938B31648006800F08040A2
:1014500078B11448006840F0004012490860124812
:1014600000F03CF91149088000210F4800F003FB0F
:1014700012E000200B4908600C49088000210A484E
:1014800000F00AFB0748006840F08040054908600A
:101490000221054800F0EFFA1121034800F00FF98E
:1014A00010BD000048000020000400404C00002057
:1014B000F0B589B004460D464FF6FF76374644B97D
:1014C00042F2107090FBF5F0401E86B241F61F47C5
:1014D00008E0012C06D14FF47A7090FBF5F0401E25
:1014E00086B247272448068001210420FFF7D2FC5A
:1014F00001210820FFF7DEFCC020ADF820001820F5
:101500008DF8230003208DF8220008A91B48FFF75F
:10151000CDF819480088ADF81800ADF81470002017
:10152000ADF81A00ADF8160005A9154800F0E2FA6A
:101530007020ADF804000120ADF806000020ADF8E1
:101540000C0001A90E4800F0E1F901A90C4800F0D7
:1015500033FA08210A4800F025FA0821084800F06B
:101560007DFA0121064800F0ADF80121044800F0A1
:1015700097F809B0F0BD00002E000020000C0140DB
:10158000000800402DE9F04104460D460026284998
:10159000204602F06DFC21D04FF07E51204602F033
:1015A00018FE04460021204602F0E2FD16D84FF056
:1015B0007E51204602F0DCFC10D81E480088401CFA
:1015C00002F0AAFC8046214602F006FD074602F022
:1015D00083FC86B23146184800F05AFA144928466E
:1015E00002F046FC21D029464FF07E5002F0FCFD6F
:1015F00005460021284602F0BBFD16D84FF07E516B
:10160000284602F0B5FC10D80A480088401C02F0B9
:1016100083FC8046294602F0DFFC074602F05CFCB2
:1016200086B23146044800F035FABDE8F08100008A
:10163000000080BF2E0000200008004010B50121EE
:101640000A4800F04FF878B10121084800F037F857
:10165000FFF770F9FFF7AAF9054A0649064801F0B5
:10166000C9FA052001F030F910BD0000001000405B
:1016700064000020600000205C00002010B5012103
:10168000054800F02FF830B10121034800F017F8A9
:10169000024800F0E7FC10BD001400400048004084
:1016A00021B1028842F08002028004E002884FF6F5
:1016B0007F731A4002807047CA4302827047CA4350
:1016C0000282704721B1028842F00102028004E0E8
:1016D00002884FF6FE731A40028070470146B1F847
:1016E0004000704730B50246002000230024158AD0
:1016F00005EA0103958905EA010413B10CB1012043
:1017000000E0002030BD000070B505460C462448BE
:1017100085420ED0234885420BD0B5F1804F08D0CA
:101720002148854205D02148854202D02048854283
:1017300000D100E000BF208850B92389A2886188C9
:101740002846FFF733FDE188284600F0A7F925E099
:10175000208804280AD12389A28861882846FFF7B7
:1017600065FDE188284600F0A2F917E020880828E6
:101770000AD12389A28861882846FFF7A3FDE18862
:10178000284600F0A1F909E02389A288618828464B
:10179000FFF7E0FDE188284600F09FF970BD0000EA
:1017A000002C0140003401400004004000080040CB
:1017B000000C00401AB183890B43838102E08389C6
:1017C0008B438381704700002DE9FF4704460D4697
:1017D00016461F46DDF830804FF6FF79CA464FB9EE
:1017E0004FF4FA6108FB01F0401E1FFA80F948F639
:1017F0009F4A12E0012F08D108EB88004000401EEC
:101800001FFA80F941F61F4A07E0022F05D1A8F11F
:1018100001001FFA80F94FF0470AADF80890ADF8C3
:1018200004A00020ADF80A00ADF80600012C25D177
:101830000121C802FFF73EFB00208DF80C0001A932
:10184000304800F057F901212E48FFF735FF0122FB
:1018500011462C48FFF7AEFF19208DF800008DF8D7
:1018600001508DF8026001208DF803006846FFF7F3
:10187000C1FA01212348FFF725FF40E0022C1ED1C9
:1018800001210846FFF706FB01A9600700F032F9C5
:10189000012211469007FFF78DFF1C208DF80000F4
:1018A0008DF801508DF8026001208DF80300684624
:1018B000FFF7A0FA01218807FFF704FF1FE0032CC0
:1018C0001DD101210220FFF7E5FA01A90E4800F021
:1018D00011F9012211460C48FFF76CFF1D208DF80D
:1018E00000008DF801508DF8026001208DF8030092
:1018F0006846FFF77FFA01210348FFF7E3FEBDE8E2
:10190000FF870000002C01400004004070B5002457
:1019100000220023058C4FF6FE7635400584028CAC
:101920008388048B4FF68F752C40B51E2C400D8894
:101930002C43751E2A400D892A434D882A43144D95
:10194000A8420BD0134DA84208D0134DA84205D091
:10195000124DA84202D0124DA84213D14FF6F7758E
:101960002A404D892A434FF6FB752A408D882A4329
:101970004FF6FF652B404FF6FF552B408D892B43CB
:10198000CD892B4383800483CD888586028470BDF6
:10199000002C01400034014000400140004401405F
:1019A000004801400A460021018B4FF6F7731940A9
:1019B000114301837047000070B50024002200230A
:1019C000058C4FF6EF7635400584028C8388048BB6
:1019D00048F6FF752C404FF6FF452C400D884FF61A
:1019E000FF7606EA05252C434FF6DF752A400D8960
:1019F00006EA05152A434D8806EA05152A43154DC2
:101A0000A84202D0144DA8421DD14FF67F752A403E
:101A10004D894FF6FF7606EA05152A434FF6BF7546
:101A20002A408D8806EA05152A434FF6FF352B40DC
:101A30004FF2FF752B408D8906EA85052B43CD8932
:101A400006EA85052B4383800483CD8805870284BD
:101A500070BD0000002C0140003401400A46002106
:101A6000018B4FF2FF7319404FF6FF7303EA022315
:101A70001943018370470A460021018C4DF6FF731C
:101A800019404FF6FF7303EA02331943018470478C
:101A9000818670470187704781847047028B4FF6BB
:101AA000F3731A400283028B0A4302837047028B4E
:101AB0004FF2FF331A400283028B4FF6FF7303EAA3
:101AC00001231A4302837047828B4FF6F3731A4047
:101AD0008283828B0A4382837047828B4FF2FF336B
:101AE0001A408283828B4FF6FF7303EA01231A4365
:101AF00082837047002202881D4B98420ED01D4BF6
:101B000098420BD0B0F1804F08D01B4B984205D0C3
:101B10001A4B984202D01A4B984204D14FF68F7359
:101B20001A404B881A43174B984207D0164B9842DD
:101B300004D04FF6FF431A40CB881A4302808B88AB
:101B400083850B8803850A4B98420BD0094B98423A
:101B500008D00E4B984205D00D4B984202D00D4B49
:101B6000984201D10B7A03860123838270470000DB
:101B7000002C0140003401400004004000080040F7
:101B8000000C0040001000400014004000400140E4
:101B9000004401400048014010B540F2255137484B
:101BA00000F091F9002867D0344800F047FAC4B239
:101BB000402C06D13248007818B90120314908700C
:101BC0005AE03A2C10D12F48007868B12C480078A0
:101BD00050B900202C490880012029490870C821EB
:101BE0002A48FEF78BFB47E025480078F0B32648EB
:101BF000008800F4004000283ED12348008800F40B
:101C00008040B0B10A2C05D000201F4908801C4933
:101C1000087031E01C48008840F400401A490880F0
:101C2000C8221A491A48FEF7F2FA0020144908702F
:101C300022E00D2C06D11448008840F4804012495F
:101C4000088019E010480088C0F30D000F490C54BB
:101C50000D480088401C0C49088008460088C728A9
:101C60000ADD002008800649087005E0FFE7002033
:101C7000044908700249087010BD00000038014096
:101C8000BF000020BE000020BC000020680600202D
:101C90002403002010B540F22551384800F013F914
:101CA00000286AD0354800F0C9F9C4B2402C06D1EA
:101CB0003348007818B90120324908705DE03A2CA9
:101CC00010D13048007868B12D48007850B9002014
:101CD0002D49088001202A490870C8212B48FEF7A9
:101CE0000DFB4AE026480078002841D026480088AD
:101CF00000F40040002840D12348008800F48040D0
:101D0000C8B10A2C05D000201F4908801C49087062
:101D100033E01D48008840F400401B490880084615
:101D20000088C0F30D0219491948FEF770FA002027
:101D30001349087021E00D2C06D11348008840F4A7
:101D400080401149088018E00F480088C0F30D005A
:101D50000E490C540C480088401C0B49088008466A
:101D60000088C72809DD002008800549087004E0C4
:101D70000020044908700249087010BD004400406A
:101D8000AE000020AD00002028000020C604002086
:101D9000FC00002010B540F22551384800F093F8BF
:101DA00000286AD0354800F049F9C4B2402C06D169
:101DB0003348007818B90120324908705DE03A2CA8
:101DC00010D13048007868B12D48007850B9002013
:101DD0002D49088001202A490870C8212B48FEF7A8
:101DE0008DFA4AE026480078002841D0264800882D
:101DF00000F40040002840D12348008800F48040CF
:101E0000C8B10A2C05D000201F4908801C49087061
:101E100033E01D48008840F400401B490880084614
:101E20000088C0F30D0219491948FEF7F0F90020A7
:101E30001349087021E00D2C06D11348008840F4A6
:101E400080401149088018E00F480088C0F30D0059
:101E50000E490C540C480088401C0B490880084669
:101E60000088C72809DD002008800549087004E0C3
:101E70000020044908700249087010BD0048004065
:101E8000B0000020AF0000202A0000208E050020B6
:101E9000E800002021B1828942F40052828104E0EE
:101EA00082894DF6FF731A408281704702460020F6
:101EB000B1F5007F00D100BF13880B400BB10120AA
:101EC00000E00020704770B5024600240023002582
:101ED000002040F66A16B14200D100BFC1F342159E
:101EE00001F01F03012606FA03F3012D02D19689A2
:101EF000334006E0022D02D1168A334001E0968A73
:101F000033400C12012606FA04F41688344013B14B
:101F10000CB1012000E0002070BDF0B503460024A4
:101F200000260025002040F66A17B94200D100BF04
:101F30001846C1F3421401F01F06012707FA06F5FF
:101F4000012C01D10C3004E0022C01D1103000E052
:101F500014301AB107682F43076002E00768AF43E7
:101F60000760F0BD2DE9F04786B005460E46002417
:101F7000A24600BFA1460027B08900B100BF2F468E
:101F80002C8A4CF6FF700440F08804432C82AC8904
:101F90004EF6F3100440B088318908437189084334
:101FA0000443AC81AC8A4FF6FF400440B08904433F
:101FB000AC8201A8FEF79EFF1F48874202D1DDF8E0
:101FC00010A001E0DDF80CA0A88900F4004040B1A9
:101FD0000AEBCA0000EB0A1031684900B0FBF1F8C7
:101FE00007E00AEBCA0000EB0A1031688900B0FB79
:101FF000F1F86420B8FBF0F004012009642101FB32
:102000001089A88900F4004040B1322000EBC900DB
:10201000B0FBF1F000F00700044308E0322000EBD1
:1020200009106421B0FBF1F000F00F0004432C8193
:1020300006B0BDE8F08700000038014001468888FE
:10204000C0F30800704730B504460D46C5F30800DC
:10205000A08000BF40212046FFF728FF0128F9D1CA
:1020600030BD0000F8B505460020009026480088E5
:1020700001F06AFF2549086055212846FFF7E3FF74
:1020800011212846FFF7DFFFAA212846FFF7DBFFD3
:1020900055212846FFF7D7FFAA212846FFF7D3FF8F
:1020A000FF212846FFF7CFFF01212846FFF7CBFF8E
:1020B00001212846FFF7C7FF00241DE0134850F810
:1020C000240000909DF8006031462846FFF7BBFFD2
:1020D0009DF8016031462846FFF7B5FF9DF8026084
:1020E00031462846FFF7AFFF9DF80360314628468A
:1020F000FFF7A9FF601CC4B2012CDFDB01212846D9
:10210000FFF7A1FFF8BD00005400002024000020CC
:1021100000BFFEE7490050EAC12018BF04204A0D65
:1021200018BF40F0010040F2FF72B2EB515F08BFF0
:1021300040F00200012808BF052070472DE9F0415A
:102140004F1E00EBC7010446D1E9000115461E46AB
:1021500037F006020DD02A46334601F053FA7F1EAF
:1021600004EBC703D3E9002301F044F837F006027B
:10217000F1D1022F25D0042F13D0062F18BFBDE8B0
:10218000F0812A46334601F03DFAD4E90A2301F0F2
:1021900031F82A46334601F035FAD4E9082301F034
:1021A00029F82A46334601F02DFAD4E9062301F036
:1021B00021F82A46334601F025FAD4E9042301F038
:1021C00019F82A46334601F01DFAD4E9022301F03A
:1021D00011F82A46334601F015FAD4E90023BDE888
:1021E000F04101F007B8012202F0A5B801F002B8F1
:1021F000002213461046114601F0ACB8024A0020F6
:10220000110702F098B8000001FDFFFF00BF704702
:102210002DE9F04D8D4F21F0004A86B005460C4661
:10222000BA452ADBAAEB070028430AD08848824532
:1022300001DC1AD1CDB106B02846BDE8F04DFFF75C
:10224000D2BF844A844B284601F0DCF907460E468B
:10225000824A834B2846214601F0D4F906B03A461B
:102260003346BDE8F04D00F0C5BF0120FEF771F820
:1022700006B0BDE8F04DFFF7BBBF7A48824542DAB1
:10228000BAF1795F0BDA2846FFF744FF042808BF4C
:10229000FFF7B4FF284606B02146BDE8F08D2A4678
:1022A0000B46104601F0AEF9834602466E480E46D4
:1022B0000B4606217844FFF741FF5A46334601F0AA
:1022C000A1F9804669488A465A4633460421784433
:1022D000FFF734FF5A46334601F094F900223B469B
:1022E00000F088FF02460B464046514601F032F8A6
:1022F0002A46234601F086F906B02A462346BDE861
:10230000F04D00F077BF284624F0004100223D4602
:102310003B4601F075FA4FF0FF3202F00CF806462A
:10232000024653480F460B4606217844FFF706FF46
:1023300032463B4601F066F9CDE900014D48324690
:102340003B4604217844FFF7F9FE32463B4601F054
:1023500059F900222B4600F04DFF8346029130468A
:10236000394600F09DFE804643480D46504517DC37
:10237000DDE900015A46029B00F0ECFF42462B4685
:1023800001F040F942462B4600F034FF012201F0F3
:10239000D2FF304A304B01F025FB304A304B4CE045
:1023A0004FF0000A52460B46404600F023FFCDE9AD
:1023B000031052462B461046194601F023F93246C7
:1023C0003B4601F01DFADDE9033200F0C3FF06468B
:1023D0000F46DDE900015A46029B00F0BBFF834631
:1023E000009101223046394601F0A5FF194A1A4BE7
:1023F00001F006FA06460F4601224046294601F042
:102400009AFF5A46009B01F0FDF832463B4601F028
:10241000E9FA06460F4601225046294601F08BFF95
:102420000E4DDFF858802A46434601F0E9F932465E
:102430003B4601F0E5F92A46434601F0E1F9002C5C
:10244000D8BF81F0004106B0BDE8F08D0000F03F3C
:102450000000F07F075C143326A6913C182D4454ED
:10246000FB21F93F0000E03F6021000076210000E1
:10247000EA200000002100003333EF3FFB21E93F59
:102480002DE9F84F04460D4621F0004000917349B4
:10249000814211DC7249884201DC06D12CB1204610
:1024A0002946BDE8F84FFFF79EBE6E48002DCCBF11
:1024B0006D496E49BDE8F88F6D49814211DD6D4966
:1024C0008142D8BF4FF0FF366DDD20462946FFF729
:1024D00021FE042808BFFFF791FE20462946BDE8EB
:1024E000F88F6549654F25F00045814233DD644929
:1024F000814219DD002632464FF0804320462946AE
:1025000000F078FE80468A4601222046294601F0E6
:1025100012FF00223B4601F065FA4246534600F0A6
:1025200019FF04460D463EE001260022BA463B460E
:102530002046294600F05EFE80460F4600225346A4
:102540002046294601F04EFA42463B4600F002FF83
:1025500004460D4627E04B4981421BDDDFF828A1E8
:102560000226002253462046294601F04BF800225D
:102570003B4600F03FFE80460F4600225346204671
:10258000294601F02FFA42463B4600F0E3FE04469E
:102590000D4608E0032622462B4600203B4900F06A
:1025A000D9FE04460D4622462B461046194601F038
:1025B00029F88B46824602460B4601F023F807466F
:1025C0000246334888460B4606217844FFF7B6FD9D
:1025D00052465B4601F016F882462E488B463A4634
:1025E000434605217844FFF7A9FD3A46434601F0EA
:1025F00009F802460B46002E504659460CDA00F008
:10260000F9FD22462B4600F0FDFF01B022462B4685
:10261000BDE8F04F01F0F4B800F0ECFD22462B4687
:1026200000F0F0FF1C4A7A4402EBC603D3E9002312
:1026300001F0D8F922462B4601F0D4F9174A7A4422
:1026400002EBC603D3E9002301F0DAF8009A002A6E
:10265000B8BF81F00041BDE8F88F000000001044D1
:102660000000F07F182D4454FB21F93FFB21F9BFF6
:102670000000DC3F0000203E0000F33F0000F03F80
:102680000000E63F008003400000F83F0000F0BF7C
:10269000021F0000C01E00005E1E0000261E00007B
:1026A0002DE9F04D9446CCF1000423F000464CEAAD
:1026B0000404524F46EAD4749A46884621F00042F8
:1026C000BC4206D8454240EA050442EAD474BC4202
:1026D00004D9BDE8F04D6246FFF788BDAAF1405528
:1026E000A5F17F6555EA0C040BD0022404EAAA7414
:1026F000434DDFF810E144EAD87452EA000B04D0ED
:102700000CE0BDE8F04DFFF7BBBE002C14BF012C60
:10271000BDE8F08D022C30D0032C32D056EA0C0BE1
:102720000AD0BE4220D1BA4209D126F0804622F01A
:1027300080423346114617E000291ADB25E0DFF816
:10274000C8B0FB44002C04BFDBE90001BDE8F08DFC
:10275000012C02BFDBE9000181F00041BDE8F08DF2
:10276000022C0AD0032C0CD0BA4212D1B8F1000FBF
:102770000BDA23482549BDE8F08D28462449BDE8F9
:10278000F08D28467146BDE8F08D1D482149BDE811
:10279000F08D921B12153C2AC4BF19481D490EDC4E
:1027A000BAF1000FBEBF12F13C0F0020014606DB5C
:1027B000624600F0CFFD21F00041FFF761FE002CE2
:1027C00008BFBDE8F08D012C04BF81F00041BDE8D9
:1027D000F08D114A114B022C07D001F003F92A4663
:1027E000BDE8F04D0A4B01F0FDB801F0FBF82A46B8
:1027F000BDE8F04D064B01F003B800000000F07F8B
:10280000182D4454FB2109C0BA1D0000FB21F9BF5B
:10281000FB210940FB21F93F075C143326A6A13CAC
:102820002DE9F0410446E07800F0C006E07800F0C1
:102830003F05607800F0010098B1EF102846E917D5
:1028400005EB5171C910A5EBC101491C01F0FF084E
:102850000B48006820B10A48414602683846904754
:1028600000BF607800F0080030B10548406818B13A
:10287000B011034A516888470020BDE8F08100008C
:102880005806002010B56FF00400FEF749FC0A4816
:1028900000680A49B0FBF1F0094908700846007861
:1028A00000EB4001C1EBC0104FF6FF7101EAC00020
:1028B0000449088010BD00001000002000127A00BA
:1028C000B2000020B40000200146114A12884A4399
:1028D0004FF0E0235A6100229A611A46126942F0D1
:1028E00001021A6100BF4FF0E022106900F00102FE
:1028F0001AB100F48032002AF5D04FF0E0221269BC
:1029000022F001024FF0E0231A6100229A61704721
:10291000B40000200146114A12784A434FF0E023E8
:102920005A6100229A611A46126942F001021A6144
:1029300000BF4FF0E022106900F001021AB100F46C
:102940008032002AF5D04FF0E022126922F0010215
:102950004FF0E0231A6100229A617047B200002014
:102960002DE9F04F8DB00746884615469946DDE9BA
:10297000166B0024002030806B49887B5A4605A9DD
:1029800000F04AFA18B1601E0DB0BDE8F08F66483D
:10299000807A00F01400002867D09DF8140000062B
:1029A0009DF8151040EA01409DF8161040EA0120FC
:1029B0009DF81710084328609DF8180000069DF840
:1029C000191040EA01409DF81A1040EA01209DF8D4
:1029D0001B10084368609DF81C0000069DF81D1040
:1029E00040EA01409DF81E1040EA01209DF81F10AA
:1029F0000843A8609DF8200000069DF8211040EAD9
:102A000001409DF8221040EA01209DF82310084360
:102A1000E86004F11000C4B22868001401906868EE
:102A200000140290A86800140390E8680014049051
:102A300001984043029901FB0100039901FB010049
:102A4000049901FB010ABAF1706F02DBBAF1885FE9
:102A500005DD00F041FA00203080401E94E7B6F911
:102A6000000040F48070308000BF2F48807A00F072
:102A7000400020B305A9601C085C095D40EA012004
:102A800000B2A8F8000005A9E01C095C05AAA01C7A
:102A9000105C41EA002000B2A8F8020005A9601D00
:102AA000095C201D105C41EA002000B2A8F8040077
:102AB000A01DC4B2B6F9000040F0080030801A48EA
:102AC000408900F4C07008B305A9601C085C095D6A
:102AD00040EA012000B2388005A9E01C095C05AA83
:102AE000A01C105C41EA002000B2788005A9601D9E
:102AF000095C201D105C41EA002000B2B880A01DD6
:102B0000C4B2B6F9000040F0700030800648807A08
:102B100000F0030018B105A90819FFF781FE484627
:102B200000F066F800202FE75806002008B5FFF7F0
:102B3000A9FE4FF4A060FEF795F972B60A210020B5
:102B4000FEF7B6FCFDF75EFD4FF47A73012200211B
:102B50000846FDF73BFE204A0221084600F0C6FA6F
:102B6000142001230022194600901846FEF72CFE7F
:102B7000FDF758FFFDF772FF4FF07C510846FEF756
:102B800001FD0120154908601549C1F8B0014FF455
:102B9000FA70FFF799FE0020104908601049C1F84B
:102BA000B00162B616E001200C491C3908600D48DE
:102BB000FFF758FA0120FDF7A3FE0B490880FDF747
:102BC00073FE0A49086000200549C1F890010220FF
:102BD000FFF7A0FEE7E7000000941100AC012142DE
:102BE000000021420038014054000020080000206D
:102BF000704700002DE9F04F99B004460D46164687
:102C00004FF07E574FF000084FF000094FF0000AD8
:102C100012A813A918AB0EAACDE9001014A916A882
:102C2000FFF79EFE18B1012019B0BDE8F08FBDF886
:102C30004C0000F4807000287ED00E9801F06CF9F2
:102C400083464FF09D4101F051F807460F9801F07F
:102C500063F983464FF09D4101F048F88046109893
:102C600001F05AF983464FF09D4101F03FF881464B
:102C7000119801F051F983464FF09D4101F036F86B
:102C8000824639464FF0804001F0A6F9494605904A
:102C900001F0A2F9414607904FF0404001F09CF945
:102CA0005146059001F098F90690079900F0B0FFA1
:102CB000834600F081FFCDE90801FFF7A9FA4FF044
:102CC0006632544BCDE90A0100F09CFCCDE90C01C1
:102CD00000F05EFA206049464FF0804001F07CF938
:102CE0004946029001F078F9414604904FF0404087
:102CF00001F072F94146029001F06EF903900499D7
:102D000001F072FA83464FF07E5100F081FF05908A
:102D100000F052FFCDE9080139464FF0804001F044
:102D20005BF94146039001F057F9494604904FF092
:102D3000804001F051F900E068E05146039001F055
:102D40004BF98346049900F063FF059000F034FFCF
:102D5000CDE90601DDE90823FFF7A2FC4FF066325A
:102D60002C4BCDE90A0100F04DFCCDE90C0100F03F
:102D70000FFA28605146504601F02EF9494604905A
:102D8000484601F029F941460390404601F024F9F4
:102D900039460190384601F01FF90090019900F082
:102DA00037FF0290039901F01FFA8346049901F05E
:102DB0001BFA059000F000FFCDE9080151463846A6
:102DC00001F00AF949460490404601F005F90390E4
:102DD000049900F01DFF4FF08041059001F0FCF8D0
:102DE000834600F0E9FECDE90601DDE90823FFF79F
:102DF00057FC4FF06632074BCDE90A0100F002FCA8
:102E0000CDE90C0100F0C4F9306001E002200BE7CD
:102E1000002009E766A64C40F8B504460F46164662
:102E20002C4890F8240010B94FF0FF30F8BD294825
:102E3000807A10B94FF0FF30F8E7264A1268917A8D
:102E4000244A526810786B460222FDF765FF10B1E4
:102E50004FF0FF30EAE79DF801009DF8001040EACE
:102E60000125A54203DA00203070401EDEE7194834
:102E700040684088B5EB600F17DD164A1268517C38
:102E8000144A526810786B460122FDF745FF10B1D5
:102E90004FF0FF30CAE79DF8000000F0100020B1AD
:102EA00000F01AF86FF00100C0E7E2B2094B1B68AE
:102EB000D97A084B5B6818783B46FDF72DFF10B1B7
:102EC0004FF0FF30B2E795FBF4F0401E3070002069
:102ED000ACE700007800002008B57048807A10B98F
:102EE0004FF0FF3008BD002000906C4A1268D17B83
:102EF0006A4A526810786B460122FDF747FF10B10D
:102F00004FF0FF30EEE7654A12685179634A526824
:102F100010786B460122FDF739FF10B14FF0FF30FA
:102F2000E0E75E4A126811795C4A526810786B4695
:102F30000122FDF72BFF10B14FF0FF30D2E75748C9
:102F400090F82400002853D00C200090534A1268B7
:102F50001179524A526810786B460122FDF716FF2C
:102F600010B14FF0FF30BDE73220FFF7ADFCC020BD
:102F700000904A48807A00F0010020B19DF80000DE
:102F800040F020000090454A12681179434A526887
:102F900010786B460122FDF7F9FE10B14FF0FF30BB
:102FA000A0E73E48407C10B10220009001E00020E4
:102FB00000903A4A1268D17B384A526810786B46C2
:102FC0000122FDF7E3FE10B14FF0FF308AE7002049
:102FD0000090324A12685179304A526810786B4634
:102FE0000122FDF7D3FE002855D04FF0FF3079E7DE
:102FF00004200090294A12681179284A52681078F2
:103000006B460122FDF7C2FE10B14FF0FF3069E7B9
:103010002248807C20B92148807A00F0010010B954
:103020004020009001E0602000901C4A1268117955
:103030001A4A526810786B460122FDF7A7FE10B1BC
:103040004FF0FF304EE73220FFF73EFC1348407C44
:1030500010B10120009001E0002000900F4A12689A
:10306000D17B0E4A526810786B460122FDF78EFE26
:1030700010B14FF0FF3035E7084A12685179074A1E
:1030800052681078054B10330122FDF77FFE10B116
:103090004FF0FF3026E7002024E7000078000020F2
:1030A0002DE9F04106460F4600F0B6FB041E0D4622
:1030B00018BF0120284320F00040C0F17F6000F1DC
:1030C000E040C00F0ED0301C18BF0120384320F064
:1030D0000040C0F17F6000F1E040C00F04BF01205C
:1030E000FDF737F920462946BDE8F08170B586B076
:1030F00006460C461546012144F20400FDF7DAFEAF
:103100004FF40070ADF8140003208DF8160018205D
:103110008DF8170005A91C48FDF7C8FA4FF4806028
:10312000ADF8140004208DF8170005A91648FDF726
:10313000BDFA25208DF800008DF801608DF8024061
:1031400001208DF803006846FDF754FE019500202C
:10315000ADF80800ADF80A00ADF80C00ADF81000AD
:103160000C20ADF80E0001A90848FEF7FBFE012275
:1031700040F225510548FEF7D0FE01210348FEF735
:1031800089FE06B070BD0000000801400038014013
:1031900021F00042A2F16052B2F5801F01F000431D
:1031A00028BFD2F17F6C0BD95FEA001C43EAC20250
:1031B00042EB507018BF704728BF20F001007047E5
:1031C000B2F5801FBCBF184670474FEA410C1CF592
:1031D000001F02D2084600F0C6BF70B500F0BCFA6E
:1031E00000000089FFF7F6BF4FF00040A0F5800017
:1031F0007047000010B591EA030F48BF83F0004309
:1032000000F1F883841A71EB030C05D2121943EB19
:103210000C03001B61EB0C01DFF824E14FEA1154B1
:10322000A4EB135C1EEA430F18BF9EEA445F73D001
:1032300023EA0E03DCF1200E21EA045143F480134B
:1032400032D322FA0CFE10EB0E0023FA0CFE41EBF7
:103250000E01CCF1200E03FA0EFE10EB0E0051F120
:103260000001B1F5801FCCF1200E32D201EB0451E8
:1032700012FA0EF2BDE8104058BF7047401C38BF2C
:103280005FEA420218BF7047002814BF20F0010017
:1032900041F100014FEA410313F5001F38BF7047A9
:1032A000A1F1C04100F0A6BA012A43EB0302ACF140
:1032B000200CDCF11F0E32BF4FF0000E23FA0CF38E
:1032C00010EB030041EB0451B4EB115FD0D0A1EB44
:1032D000045101F5801149085FEA300001EB045107
:1032E0000ED350F1000038BF12FA0EFE08D1BDE82F
:1032F0001040C9E7401C38BF5FEA4202CAD1C3E7A9
:10330000BDE810404FEA410313F5001F38BF704776
:10331000A1F1C04100F06EBA9EEA445F08D011EA04
:103320005E0FBDE8104004BF01F00041002070476F
:10333000BDE8104070B500F00FFA00BF64FBBE3E60
:103340000000E0FF02494FF0000000F0C2BF00BFE4
:103350000000F87F2DE9C04130B4DFF8A0C23CEA9C
:10336000111418BF3CEA131400F0EC8081EA030545
:103370001CEA111444EAD57418BF1CEA131500F0B6
:10338000C780A4EB05044FF0004545EAC12145EA9A
:10339000C32341EA505143EA525304F17F749942E6
:1033A00004F500344FEAC0204FEAC22208BF904221
:1033B00000F09C804FEA13650FF24016765D4FEAED
:1033C000134506FB05F7C7F1807706FB07F74FEAC1
:1033D000D737A7FB03687642C8F58038A7FB06CE2F
:1033E00038BFA8F1010807FB08E64FF0000EA6FB66
:1033F000028CE6FB03CEDCF1000CCEF1004E38BFB0
:10340000AEF1010EA6FB0C584FF000074FF000057F
:10341000E6FB0E87A1FB08C6A0FB07CE16EB0E0647
:1034200045F10005E1FB076515F1E04E7EBFA4F50F
:1034300080345FEA46066D4116F1800745F10005CC
:103440004FEA17274FEA066647EA0567A6F1DE4608
:10345000B6F1805F4FEA15251FD9384624F0010CDC
:1034600005EBC471BCF1FE6F01EB0C1102D8F0BC8E
:10347000BDE8008124425CBF01F5801E9EEAC47F46
:1034800002D4F0BCBDE80081244238D4F0BCA1F1E4
:10349000C041BDE8004100F0ADB94FEAD22242EA96
:1034A00043524FEAD323A7FB02864FEAD02040EADB
:1034B000415007FB03661EEA0E0F4FEAD12105FBC0
:1034C000026658BFA6EB0056B6EB00564FEA520E06
:1034D0004EEAC37E18EB0E0E56EB530EBDD518EB1D
:1034E00002085E417F1C55F10005B6E74FF48015D8
:1034F0004FF000074FF000064FF00008ADE7F0BCBA
:103500004FF0000001F1C04101F00041BDE8008131
:1035100011EA0C1F0CEA131500D00CE013EA0C1F83
:1035200000F025804FF00000F0BC81EA030101F0BB
:103530000041BDE80081F0BCBDE8004181EA030123
:1035400000F058B9F0BCBDE8004170B500F004F9D6
:10355000097EFC3E00F007B881EA03014FF000004D
:1035600001F00041704781EA030100F043B9F0BC6B
:10357000BDE800414FF0000021497047FFFDFBF915
:10358000F7F5F4F2F0EEEDEBE9E8E6E4E3E1E0DE96
:10359000DDDBDAD8D7D5D4D3D1D0CFCDCCCBCAC808
:1035A000C7C6C5C4C2C1C0BFBEBDBCBBBAB9B8B72F
:1035B000B6B5B4B3B2B1B0AFAEADACABAAA9A8A822
:1035C000A7A6A5A4A3A3A2A1A09F9F9E9D9C9C9BF0
:1035D0009A9999989797969595949393929191909B
:1035E0008F8F8E8E8D8C8C8B8B8A8989888887872C
:1035F0008685858484838382828181800000FF07A1
:103600000000F87FDFF848C170B51CEA111E1EBF2C
:103610001CEA13159EEA0C0F95EA0C0F00F06F8060
:1036200081EA030423EA4C134EEAD47E21EA4C11CA
:1036300041F4801143F48013AE44A1FB024CA0FB83
:103640000365AEF17F7E361955EB0C05A1FB034CEB
:103650004CF10003A0FB021C16EB0C06654153F174
:103660000003094218BF46F0010613F4007F0BD196
:103670004FEA03314FEA0530340341EA155140EA7D
:1036800016506FF003020AE04FEAC3214FEAC5204B
:10369000F40241EA555140EA56506FF0020202EB43
:1036A0002E4201EB025585EACE710AD05FEA440C46
:1036B00018BF24F0004450F1000041F1000120EA5D
:1036C000D47040F2FE7C624500D270BDA84214BFA7
:1036D0004FF080444FF04044002E08BF0024BEF15C
:1036E000806FA8BFA1F1C041BDE8704080F2828028
:1036F0004FF0000001F1C04101F0004170479EEA27
:103700000C0F0CEA131518BF95EA0C0F06D04FF0FA
:10371000000081EA030E0EF0004170BD00F01CF8BD
:103720008900013E00F007B800F009B84FEA430CE9
:103730005FEA5C5C08D081EA030100F05BB84FEA05
:10374000410C5FEA5C5CF6D14FF000000149704724
:103750000000FF070000F87F0EF1020E2EF0030EAE
:103760005EF8046B364205D4012A43EB030515F5D8
:10377000001F12D8012841EB010C1CF5001F0CD8CA
:103780000ED14FEAD17C15F5001F0CEB4C0C0CF15F
:10379000020C08BF4CEBD37C04E04FF0080C01E0B6
:1037A0004FEAD37C0CEB4C0526FA05F606F007062B
:1037B000B6F1040C06D20EEB860CBDE870404CF05E
:1037C000010C6047DFE80CF0090B02024FF00041EA
:1037D0004FF00000A1F5002170BD194610460128E8
:1037E00051EB010418BFD4F5001484BF002001F090
:1037F000004170BD0808A0F500114FEA3101704783
:1038000091EA030F10B581F000413FF5FBAC83F066
:10381000004300F0EFB800002DE9F04101F5801CF5
:10382000BCF5001FC0F2C3804FEA115C21EA0C51C5
:103830000CF1FD0C41F480115FEA5C0C0CF5C07CCE
:1038400001D3400049413DA4890241EA90518702D9
:103850008E0E0A0CA45D04FB04F602FB06F6C6F10C
:103860004046A4FB0662F60D46EA422606FB06F435
:10387000A4FB01235242C3F1404338BF5B1EA6FBA9
:1038800002420024E6FB0324D20B42EA4446A6FB94
:103890000623A1FB02E2A3FB07E4A4184FF00002F9
:1038A00052F10002E3FB01426442C2F1404E38BFD4
:1038B000AEF1010EA6FB04234FF00002E6FB0E3230
:1038C000A2FB03464FF00004B61954F10004E2FBDA
:1038D0000264A1FB06E6A4FB07E816EB08064FF01E
:1038E000000858F10008E4FB01687642C8F140582E
:1038F00038BFA8F10108A2FB06E4A3FB08E52D19D7
:103900004FF0000454F10004E2FB0854A1FB05E66B
:10391000A7FB04E818EB06084FF0000656F1000676
:10392000E1FB048618F1200556F10006A809A8F16C
:103930001B08B10908F03F08B8F10A0F40EA866099
:103940001CD901EB0C51BDE8F08100BFFCF5EEE89D
:10395000E2DDD8D3CFCBC7C3C0BDB9B6B4B1AEAC2E
:10396000A9A7A5A3A19F9D9B9A9896959392908FA6
:103970008D8C8B898887868584838281A0FB0068F3
:1039800000FB01F208EB4208B8EB872807D5341892
:1039900058EB0104D5D5401C51F10001D1E7341A90
:1039A00078EB0104CDD4401E71F10001C9E75FEA54
:1039B0004C0C5FEA9C5C0DD105D34FF0000001F088
:1039C0000041BDE8F081BDE8F04170B5FFF7C4FEED
:1039D0006DDBFFBEBDE8F0414FF0000000497047CD
:1039E0000000F87F10B591EA030F48BF83F0004351
:1039F0003FF508AC841A71EB030C07D212198CF056
:103A0000004C43EB0C03001B61EB0C01DFF8A4E15D
:103A10004FEA1154A4EB135C1EEA430F18BF9EEA51
:103A2000445F00F0B08023EA6E03524221EA045161
:103A3000C3EB6E0338BF5B1EDCF1200E25D322FAE8
:103A40000CFE10EB0E0043FA0CFE41EB0E01CCF124
:103A5000200E03FA0EFE10EB0E0051F10001CCF126
:103A6000200E29D412FA0EF201EB0451BDE81040E9
:103A700058BF7047401C1CBFB2F1004F7047002870
:103A80000CBF491C20F00100704712EB020E43EB03
:103A9000030218BF4FF0010E4EEA4202ACF1200CB7
:103AA000DCF11E0E54D943FA0CFE10EB0E0051F15E
:103AB000FF31CCF11E0ED5D50EF1010E12FA0EFE1D
:103AC000404141EB010101EB445C5FEA5C5C10D9D1
:103AD00010EBDE7001EB045138BFBEF1004FBDE8C2
:103AE000104018BF704700280CBF491C20F001008F
:103AF000704730D24FEAD42C11F5001124F4006441
:103B00001BD0B1FA81F20B3AA41AA41ED2F1200301
:103B1000914030FA03F31943904001EBCC71002C33
:103B200001EB0451BDE81040A8BF704701F1C0414E
:103B30004FF0000001F000417047B0FA80F310FA36
:103B400003F100D110BDE41A173C4805C90AE4E7A7
:103B500001EB045110BD491001EB0451BDE81040C8
:103B60004FEA300002E04FF0000170474A0008BF02
:103B70000042F8D0B2F5001F28BF704701F00041A5
:103B80004FF0000070479EEA445F07D011EA5E0FD5
:103B9000BDE8104004BF002100207047BDE8104080
:103BA00070B5FFF7D9FD00BF40DFF63E83F000415E
:103BB000104670470000E0FF43004FEAD30C4FEA85
:103BC0003C0C43401FBF40070CF1605113F0FE4F07
:103BD00070471CF0006F03D100200CF000417047CB
:103BE0000CF0004343EA507010B540EACC0000F0FE
:103BF00074FA00BF000000924FEA0001FFF7FABD1F
:103C00004FF000414FF00000A1F500217047000087
:103C100090EA010F48BF81F0004100F1EC82421AA6
:103C20003CBF801A89184FEAD0524FF07F4C1CEAF3
:103C3000410FA2EBD15318BF9CEA026F00F03B800A
:103C40004FF0004C4CEA00204CEA012121FA03FC21
:103C500010EB0C0C1ED202F1FF325FEA1C2040EB8D
:103C6000C25038BF70471CF07F0F4FEA400C18BF9E
:103C7000BCF17F4F38BF7047C3F12003994008BFA4
:103C800020F00100BCF17F4F38BF7047A0F1C04069
:103C900000F069BA4FEA3C00000A40EBC25028BF6E
:103CA0001CF0FF0F4FEA400CE6D018BFBCF17F4F6D
:103CB00038BF7047EAE79CEA026F05D010EA5C0F54
:103CC00008BF00F00040704710B500F006FA00BFD2
:103CD00064FBBE3E401058BFC0F14040491058BF81
:103CE000C1F140418142EFF3008070474FF47F0CF7
:103CF0001CEAD0121EBF1CEAD11392EA0C0F93EA01
:103D00000C0F00F0858090EA010F48BF42F48072EA
:103D100040F4000C41F400002CF07F4120F07F4083
:103D200000B58142A2EB03020FF2081CACEB504E2F
:103D3000C0F100009EF800E04FEA4E0E00FB0EFCC2
:103D400038BF49004FEA2C1C02F5FA020CFB0EF3B7
:103D50004FEACE1E4FEA112C4FEAC1210EEB635EF3
:103D600042EB22420EFB0CFC4FEA1C5300FB0311FA
:103D70004FEA112C4FEA01310EFB0CFC4FEADC4CF0
:103D800000FB0C11C14228BF09184CEB03335DF84E
:103D900004EB10EB410143EBC250B2F57C0F38BF8E
:103DA000704729D512F0F00F1CBF00F1C04000F0A1
:103DB00000407047008182838485868788898B8C48
:103DC0008D8E8F919293959697999A9C9D9FA0A284
:103DD000A3A5A7A8AAACAEB0B2B3B5B7B9BCBEC0D4
:103DE000C2C5C7C9CCCED1D4D7D9DCDFE2E6E9EC75
:103DF000F0F3F7FAFE0000004FEA400C0CF1807C73
:103E0000BCF17E4F28BF7047B0F1C04000F0ABB9A5
:103E100090EA010F0CEAD11348BF42F48072624568
:103E200038BF634507D213F47F0F16D080EA010034
:103E300000F00040704710B500F04FF9097EFC3EDD
:103E400000F005B880EA010000F00040704780EA09
:103E5000010000F0004000F086B912F47F0F04BFAB
:103E60000248704780EA010000F07DB90000C07F81
:103E700050EA010C00F113801CF5000F58BFBCF58F
:103E8000000F01D48842704707D710F5000F58BFC4
:103E900011F5000F15D488427047894270471CF510
:103EA000000F04D5BCF5000FF7D5814270474FF0E5
:103EB000807C1CEB400F38BF1CEB410F01D28142CC
:103EC000704710B500F009F9922449004FF00050F6
:103ED0004FF08051FFF7FEBEC10DD1F19E0206DB0F
:103EE0004FEA002343F0004323FA02F070470042F8
:103EF00007D54FEA4001B1F1FE4F02D24FF000006A
:103F0000704710B500F0E9F849922480002070470E
:103F10006FEA20007047000010F0004148BF4042A7
:103F2000B0FA80F310FA03F2C3F19D030BD051EA0B
:103F3000C35101EB1220530638BF704700F1010056
:103F400008BF20F001007047B0FA80F310FA03F2C6
:103F5000C3F19D030AD0D90501EB1220530638BFE7
:103F6000704700F1010008BF20F001007047000019
:103F700050EA010C00F113801CF5000F58BFBCF58E
:103F8000000F01D48842704707D710F5000F58BFC3
:103F900011F5000F15D488427047894270471CF50F
:103FA000000F04D5BCF5000FF7D5814270474FF0E4
:103FB000807C1CEB400F38BF1CEB410F01D28142CB
:103FC000704710B500F089F8922449004FF0005076
:103FD0004FF08051FFF77EBE4FF47F0C1CEAD012E9
:103FE0001EBF1CEAD11392EA0C0F93EA0C0F00F0EB
:103FF000478090EA010F48BF42F480724FF0004CB6
:104000004CEA00204CEA012102EB0302A0FB011361
:10401000A2F50002002918BF43F001035B0028BF8E
:104020004FEA330342EB22425FEA132C4CEBC250BF
:104030002EBFBCEB436FB2F57C0F70474FEA036CA9
:10404000BCF1004F08BF20F00100B2F57C0F38BF73
:1040500070470BD582F0FF0212F5803FC8BF704752
:1040600000F1C040D8BF00F00040704700F5000CE0
:104070005FEA4C0C48BF7047B0F1C04000F073B825
:1040800090EA010F0CEAD11348BF42F480726245F6
:1040900038BF634504D280EA010000F00040704759
:1040A00010B500F01AF800BF8900013E00F007B813
:1040B00000F009B85FEA410C5FEA1C6C08D080EAA6
:1040C000010000F050B85FEA400C5FEA1C6CF6D1CA
:1040D0004FF00040A0F5800070470EF1020E2EF068
:1040E000030E5EF8044B244204D44FEA4102B2F1BD
:1040F0007F4F11D84FEA4003B3F17F4F0CD80ED158
:104100004FEAD07CB2F17F4F0CEB4C0C0CF1020C5F
:1041100008BF4CEBD17C04E04FF0080C01E04FEA03
:10412000D17C0CEB4C0324FA03F404F00704B4F143
:10413000040C06D20EEB840CBDE810404CF0010CD0
:104140006047DFE80CF0070802024FF00040A0F5DE
:10415000800010BD0846420018BFD2F1807288BFAF
:1041600000F0004010BDFF2141EAD050C00570476B
:1041700051EA000C00F113801CF5000F58BFBCF58C
:10418000000F01D48142704707D711F5000F58BFC7
:1041900010F5000F15D481427047894270471CF515
:1041A000000F04D5BCF5000FF7D5884270474FF0DB
:1041B000807C1CEB410F38BF1CEB400F01D28842C2
:1041C000704780EA010081EA000180EA0100FFF700
:1041D000F8BE80F0004090EA010F7FF520AD81F03D
:1041E000004100F008B8000090EA010F48BF81F0DC
:1041F00000413FF514AD421A04D882F00042A0EB12
:10420000020011444FEAD0524FF07F4C1CEA410F9C
:10421000A2EBD15318BF9CEA026F4AD04FF0004C7A
:104220004CEA00204CEA012121FA03FCB0EB0C0C13
:104230000FD412F0FE0F36D05FEA4C001DD50012ED
:1042400040EBC25038BF70471CF03F0F18BF70479B
:104250000BE0A2F101025FEA1C2040EBC25038BF24
:1042600070471CF07F0F18BF7047C3F120039940BF
:1042700014BF401E20F00100704780084FEA12234F
:1042800008BF7047B0FA80FCA2EB0C02CCF1280CFE
:1042900060FA0CF093EA122F04BF00EBC250704793
:1042A0004FEAC3707047130A5FEADC1008BF70471B
:1042B000F6E79CEA026F04D010EA5C0F08BF00200A
:1042C000704710B5FFF709FF40DFF63E81F0004070
:1042D00070470CF00F03092B08BF082000F059802D
:1042E0000A2B0BD0082B18BF704708BF1CF0400FDB
:1042F0000AD04FF000004FF0000170471CF0400F53
:1043000018BF4FF0004070471CF0100F08D020F08D
:10431000704300F07F4242EAD3014FEA4370704796
:1043200000F0604021F07F4242EA000201F07F404D
:1043300040EA727070474FF0FF0C4CF4E06C1CEADE
:1043400011531CBF9CEA030C9445C2BFDA4201EB37
:1043500002517047002B0DD0BCF1000F0FD0002A86
:1043600001F00041A4BF41F0E04141F07F614FF016
:104370000000704701F000414FF00000704750EA24
:1043800001334FF09B0C18BF4CF0806C7EF4DAAF19
:1043900070471CF4801F11D01CF4E02F03D06FEA8B
:1043A000CC31490070474FF04050EFF3008222F0CB
:1043B000704242EA000282F3008870474FF000002A
:1043C0007047000075191A0C6A231B1C1F20727499
:1043D000433B4138393A6B6C376F06246D6E700081
:1043E0006800000476005401F7FD0001830000001E
:1043F0000008000000010018320005000000204104
:104400000000D242295C0F3E9A99993E3333733FA4
:10441000295C0F3E00000000555555555555C53FC8
:104420007D6FEB0312D6D4BF5544880E55C1C93FEA
:104430003B8F68B52882A4BF88B20175E0EF493F81
:1044400009F7FD0DE13D023F4B2D8A1C273A03C0C1
:10445000C88A599CE52A004059018D1B6C06E6BFAD
:1044600082922EB1C5B8B33F4FBB610567ACDD3F4B
:10447000182D4454FB21E93F9BF681D20B73EF3F8B
:10448000182D4454FB21F93FE2652F227F2B7A3C03
:10449000075C143326A6813CBDCBF07A8807703CBC
:1044A000075C143326A6913CC4EB98999999C9BF2F
:1044B000711623FEC671BCBF6D9A74AFF2B0B3BF64
:1044C0009AFDDE522DDEADBF2F6C6A2C44B4A2BF24
:1044D0000D5555555555D53FFF8300922449C23F90
:1044E0006E204CC5CD45B73F513DD0A0660DB13FC4
:1044F000EB0D76244B7BA93F11DA22E33AAD903FD6
:104500000000000000000000284500080000002016
:10451000D40000006C010008FC450008D400002015
:10452000BC0C000088010008000000000000000032
:10453000000000000000000000A24A04000000008B
:104540000000000001020304060708090000000043
:1045500000000000000000000A000D001E00000026
:10456000000000000000000000000000000000004B
:10457000000000000000000000000000000000003B
:10458000000000000000000000000000000000002B
:10459000000000000000000000000000000000001B
:1045A000C4430008E04300080000000000000000D1
:1045B00000000000000000000000000000000000FB
:1045C0000000000000000000EC43000801000000B3
:1045D00001000000010000000000000000000000D9
:1045E00000000000000000000000000001020304C1
:0C45F00001020304060708090204060883
:04000005080001CD21
:00000001FF
